{
  "contractName": "covidVaccineRegister",
  "abi": [
    {
      "constant": true,
      "inputs": [
        {
          "internalType": "uint256",
          "name": "",
          "type": "uint256"
        }
      ],
      "name": "vaccinationRecords",
      "outputs": [
        {
          "internalType": "string",
          "name": "Name",
          "type": "string"
        },
        {
          "internalType": "string",
          "name": "Surname",
          "type": "string"
        },
        {
          "internalType": "string",
          "name": "VaccinationDate",
          "type": "string"
        },
        {
          "internalType": "string",
          "name": "VaccinationName",
          "type": "string"
        },
        {
          "internalType": "string",
          "name": "VaccinationPlace",
          "type": "string"
        }
      ],
      "payable": false,
      "stateMutability": "view",
      "type": "function"
    },
    {
      "constant": false,
      "inputs": [
        {
          "internalType": "string",
          "name": "_Name",
          "type": "string"
        },
        {
          "internalType": "string",
          "name": "_Surname",
          "type": "string"
        },
        {
          "internalType": "string",
          "name": "_vaccineDate",
          "type": "string"
        },
        {
          "internalType": "string",
          "name": "_vaccineName",
          "type": "string"
        },
        {
          "internalType": "string",
          "name": "_vaccinePlace",
          "type": "string"
        }
      ],
      "name": "createVaccinationRecord",
      "outputs": [
        {
          "internalType": "uint256",
          "name": "",
          "type": "uint256"
        }
      ],
      "payable": false,
      "stateMutability": "nonpayable",
      "type": "function"
    },
    {
      "constant": true,
      "inputs": [],
      "name": "getNumberOfVaccinations",
      "outputs": [
        {
          "internalType": "uint256",
          "name": "",
          "type": "uint256"
        }
      ],
      "payable": false,
      "stateMutability": "view",
      "type": "function"
    },
    {
      "constant": true,
      "inputs": [
        {
          "internalType": "uint256",
          "name": "x",
          "type": "uint256"
        }
      ],
      "name": "getVaccinationRecord",
      "outputs": [
        {
          "components": [
            {
              "internalType": "string",
              "name": "Name",
              "type": "string"
            },
            {
              "internalType": "string",
              "name": "Surname",
              "type": "string"
            },
            {
              "internalType": "string",
              "name": "VaccinationDate",
              "type": "string"
            },
            {
              "internalType": "string",
              "name": "VaccinationName",
              "type": "string"
            },
            {
              "internalType": "string",
              "name": "VaccinationPlace",
              "type": "string"
            }
          ],
          "internalType": "struct covidVaccineRegister.VaccinationRecord",
          "name": "",
          "type": "tuple"
        }
      ],
      "payable": false,
      "stateMutability": "view",
      "type": "function"
    }
  ],
  "bytecode": "0x608060405234801561001057600080fd5b50610f06806100206000396000f3fe608060405234801561001057600080fd5b506004361061004c5760003560e01c8063195812d0146100515780631ea6ddea146100815780637b05e1871461009f57806386c4953d146100d3575b600080fd5b61006b60048036036100669190810190610b3d565b610103565b6040516100789190610e16565b60405180910390f35b610089610358565b6040516100969190610e16565b60405180910390f35b6100b960048036036100b49190810190610c42565b610364565b6040516100ca959493929190610d7e565b60405180910390f35b6100ed60048036036100e89190810190610c42565b61069f565b6040516100fa9190610df4565b60405180910390f35b600080600160006040518060a001604052808f8f8080601f016020809104026020016040519081016040528093929190818152602001838380828437600081840152601f19601f8201169050808301925050505050505081526020018d8d8080601f016020809104026020016040519081016040528093929190818152602001838380828437600081840152601f19601f8201169050808301925050505050505081526020018b8b8080601f016020809104026020016040519081016040528093929190818152602001838380828437600081840152601f19601f82011690508083019250505050505050815260200189898080601f016020809104026020016040519081016040528093929190818152602001838380828437600081840152601f19601f82011690508083019250505050505050815260200187878080601f016020809104026020016040519081016040528093929190818152602001838380828437600081840152601f19601f820116905080830192505050505050508152509080600181540180825580915050906001820390600052602060002090600502016000909192909190915060008201518160000190805190602001906102cc929190610a0a565b5060208201518160010190805190602001906102e9929190610a0a565b506040820151816002019080519060200190610306929190610a0a565b506060820151816003019080519060200190610323929190610a0a565b506080820151816004019080519060200190610340929190610a0a565b505050039050809150509a9950505050505050505050565b60008080549050905090565b6000818154811061037157fe5b9060005260206000209060050201600091509050806000018054600181600116156101000203166002900480601f01602080910402602001604051908101604052809291908181526020018280546001816001161561010002031660029004801561041d5780601f106103f25761010080835404028352916020019161041d565b820191906000526020600020905b81548152906001019060200180831161040057829003601f168201915b505050505090806001018054600181600116156101000203166002900480601f0160208091040260200160405190810160405280929190818152602001828054600181600116156101000203166002900480156104bb5780601f10610490576101008083540402835291602001916104bb565b820191906000526020600020905b81548152906001019060200180831161049e57829003601f168201915b505050505090806002018054600181600116156101000203166002900480601f0160208091040260200160405190810160405280929190818152602001828054600181600116156101000203166002900480156105595780601f1061052e57610100808354040283529160200191610559565b820191906000526020600020905b81548152906001019060200180831161053c57829003601f168201915b505050505090806003018054600181600116156101000203166002900480601f0160208091040260200160405190810160405280929190818152602001828054600181600116156101000203166002900480156105f75780601f106105cc576101008083540402835291602001916105f7565b820191906000526020600020905b8154815290600101906020018083116105da57829003601f168201915b505050505090806004018054600181600116156101000203166002900480601f0160208091040260200160405190810160405280929190818152602001828054600181600116156101000203166002900480156106955780601f1061066a57610100808354040283529160200191610695565b820191906000526020600020905b81548152906001019060200180831161067857829003601f168201915b5050505050905085565b6106a7610a8a565b6106af610a8a565b600083815481106106bc57fe5b90600052602060002090600502016040518060a0016040529081600082018054600181600116156101000203166002900480601f01602080910402602001604051908101604052809291908181526020018280546001816001161561010002031660029004801561076e5780601f106107435761010080835404028352916020019161076e565b820191906000526020600020905b81548152906001019060200180831161075157829003601f168201915b50505050508152602001600182018054600181600116156101000203166002900480601f0160208091040260200160405190810160405280929190818152602001828054600181600116156101000203166002900480156108105780601f106107e557610100808354040283529160200191610810565b820191906000526020600020905b8154815290600101906020018083116107f357829003601f168201915b50505050508152602001600282018054600181600116156101000203166002900480601f0160208091040260200160405190810160405280929190818152602001828054600181600116156101000203166002900480156108b25780601f10610887576101008083540402835291602001916108b2565b820191906000526020600020905b81548152906001019060200180831161089557829003601f168201915b50505050508152602001600382018054600181600116156101000203166002900480601f0160208091040260200160405190810160405280929190818152602001828054600181600116156101000203166002900480156109545780601f1061092957610100808354040283529160200191610954565b820191906000526020600020905b81548152906001019060200180831161093757829003601f168201915b50505050508152602001600482018054600181600116156101000203166002900480601f0160208091040260200160405190810160405280929190818152602001828054600181600116156101000203166002900480156109f65780601f106109cb576101008083540402835291602001916109f6565b820191906000526020600020905b8154815290600101906020018083116109d957829003601f168201915b505050505081525050905080915050919050565b828054600181600116156101000203166002900490600052602060002090601f016020900481019282601f10610a4b57805160ff1916838001178555610a79565b82800160010185558215610a79579182015b82811115610a78578251825591602001919060010190610a5d565b5b509050610a869190610ab9565b5090565b6040518060a0016040528060608152602001606081526020016060815260200160608152602001606081525090565b610adb91905b80821115610ad7576000816000905550600101610abf565b5090565b90565b60008083601f840112610af057600080fd5b8235905067ffffffffffffffff811115610b0957600080fd5b602083019150836001820283011115610b2157600080fd5b9250929050565b600081359050610b3781610eac565b92915050565b60008060008060008060008060008060a08b8d031215610b5c57600080fd5b60008b013567ffffffffffffffff811115610b7657600080fd5b610b828d828e01610ade565b9a509a505060208b013567ffffffffffffffff811115610ba157600080fd5b610bad8d828e01610ade565b985098505060408b013567ffffffffffffffff811115610bcc57600080fd5b610bd88d828e01610ade565b965096505060608b013567ffffffffffffffff811115610bf757600080fd5b610c038d828e01610ade565b945094505060808b013567ffffffffffffffff811115610c2257600080fd5b610c2e8d828e01610ade565b92509250509295989b9194979a5092959850565b600060208284031215610c5457600080fd5b6000610c6284828501610b28565b91505092915050565b6000610c7682610e31565b610c808185610e3c565b9350610c90818560208601610e68565b610c9981610e9b565b840191505092915050565b6000610caf82610e31565b610cb98185610e4d565b9350610cc9818560208601610e68565b610cd281610e9b565b840191505092915050565b600060a0830160008301518482036000860152610cfa8282610c6b565b91505060208301518482036020860152610d148282610c6b565b91505060408301518482036040860152610d2e8282610c6b565b91505060608301518482036060860152610d488282610c6b565b91505060808301518482036080860152610d628282610c6b565b9150508091505092915050565b610d7881610e5e565b82525050565b600060a0820190508181036000830152610d988188610ca4565b90508181036020830152610dac8187610ca4565b90508181036040830152610dc08186610ca4565b90508181036060830152610dd48185610ca4565b90508181036080830152610de88184610ca4565b90509695505050505050565b60006020820190508181036000830152610e0e8184610cdd565b905092915050565b6000602082019050610e2b6000830184610d6f565b92915050565b600081519050919050565b600082825260208201905092915050565b600082825260208201905092915050565b6000819050919050565b60005b83811015610e86578082015181840152602081019050610e6b565b83811115610e95576000848401525b50505050565b6000601f19601f8301169050919050565b610eb581610e5e565b8114610ec057600080fd5b5056fea365627a7a723158203db1a41063a8ea2c383b6965bef6408edc4ca05d9e4644fb0f7f84633db701606c6578706572696d656e74616cf564736f6c63430005100040",
  "source": "pragma solidity ^0.5.0;\r\npragma experimental ABIEncoderV2;\r\n\r\n//Contract made for this assignment\r\ncontract covidVaccineRegister {\r\n  //VaccinationRecord structure used\r\n  struct VaccinationRecord {\r\n    string Name;\r\n    string Surname;\r\n    string VaccinationDate;\r\n    string VaccinationName;\r\n    string VaccinationPlace;\r\n  }\r\n\r\n  //This array will store all of the records of people taking the vaccine\r\n  VaccinationRecord[] public vaccinationRecords;\r\n\r\n  //Inserts 1 entry into the record using the vaccinationRecords structure\r\n  function createVaccinationRecord(string calldata _Name, string calldata _Surname, string calldata _vaccineDate, string calldata _vaccineName, string calldata _vaccinePlace) external returns(uint){\r\n\r\n    uint id = vaccinationRecords.push(VaccinationRecord(_Name, _Surname, _vaccineDate, _vaccineName, _vaccinePlace )) - 1;\r\n    return id;\r\n  }\r\n\r\n  //Simply returns the number of vaccination records\r\n  function getNumberOfVaccinations() external view returns(uint) {\r\n\r\n    return vaccinationRecords.length;\r\n  }\r\n\r\n  //Returns a record\r\n  function getVaccinationRecord(uint x) external view returns(VaccinationRecord memory) {\r\n    VaccinationRecord memory record = vaccinationRecords[x];\r\n    return record;\r\n  }\r\n\r\n  \r\n\r\n}\r\n\r\n//covidVaccineRegister.deployed().then(function(instance) { app = instance })\r\n//createVaccinationRecord(\"Ryan\",\"Davies\",\"2021-01-01\",\"Johnson\",\"Claremont\")",
  "sourcePath": "D:/OneDrive/Documents/UCT/Web Development/application/contracts/cvt.sol",
  "compiler": {
    "name": "solc",
    "version": "0.5.16+commit.9c3226ce.Emscripten.clang"
  },
  "schemaVersion": "3.3.4",
  "updatedAt": "2021-05-21T12:14:06.494Z",
  "networkType": "ethereum",
  "devdoc": {
    "methods": {}
  },
  "userdoc": {
    "methods": {}
  }
}