{
  "contractName": "covidVaccineRegister",
  "abi": [
    {
      "constant": true,
      "inputs": [
        {
          "internalType": "uint256",
          "name": "",
          "type": "uint256"
        }
      ],
      "name": "vaccinationRecords",
      "outputs": [
        {
          "internalType": "string",
          "name": "Name",
          "type": "string"
        },
        {
          "internalType": "string",
          "name": "Surname",
          "type": "string"
        },
        {
          "internalType": "string",
          "name": "VaccinationDate",
          "type": "string"
        },
        {
          "internalType": "string",
          "name": "VaccinationName",
          "type": "string"
        },
        {
          "internalType": "string",
          "name": "VaccinationPlace",
          "type": "string"
        }
      ],
      "payable": false,
      "stateMutability": "view",
      "type": "function"
    },
    {
      "constant": false,
      "inputs": [
        {
          "internalType": "string",
          "name": "_Name",
          "type": "string"
        },
        {
          "internalType": "string",
          "name": "_Surname",
          "type": "string"
        },
        {
          "internalType": "string",
          "name": "_vaccineDate",
          "type": "string"
        },
        {
          "internalType": "string",
          "name": "_vaccineName",
          "type": "string"
        },
        {
          "internalType": "string",
          "name": "_vaccinePlace",
          "type": "string"
        }
      ],
      "name": "createVaccinationRecord",
      "outputs": [
        {
          "internalType": "uint256",
          "name": "",
          "type": "uint256"
        }
      ],
      "payable": false,
      "stateMutability": "nonpayable",
      "type": "function"
    },
    {
      "constant": true,
      "inputs": [],
      "name": "getNumberOfVaccinations",
      "outputs": [
        {
          "internalType": "uint256",
          "name": "",
          "type": "uint256"
        }
      ],
      "payable": false,
      "stateMutability": "view",
      "type": "function"
    },
    {
      "constant": true,
      "inputs": [],
      "name": "getNumberOfVaccinations2",
      "outputs": [
        {
          "internalType": "uint256",
          "name": "",
          "type": "uint256"
        }
      ],
      "payable": false,
      "stateMutability": "view",
      "type": "function"
    }
  ],
  "bytecode": "0x608060405234801561001057600080fd5b50610b47806100206000396000f3fe608060405234801561001057600080fd5b506004361061004c5760003560e01c8063195812d0146100515780631ea6ddea146102325780637b05e18714610250578063c8884b0f146104a7575b600080fd5b61021c600480360360a081101561006757600080fd5b810190808035906020019064010000000081111561008457600080fd5b82018360208201111561009657600080fd5b803590602001918460018302840111640100000000831117156100b857600080fd5b9091929391929390803590602001906401000000008111156100d957600080fd5b8201836020820111156100eb57600080fd5b8035906020019184600183028401116401000000008311171561010d57600080fd5b90919293919293908035906020019064010000000081111561012e57600080fd5b82018360208201111561014057600080fd5b8035906020019184600183028401116401000000008311171561016257600080fd5b90919293919293908035906020019064010000000081111561018357600080fd5b82018360208201111561019557600080fd5b803590602001918460018302840111640100000000831117156101b757600080fd5b9091929391929390803590602001906401000000008111156101d857600080fd5b8201836020820111156101ea57600080fd5b8035906020019184600183028401116401000000008311171561020c57600080fd5b90919293919293905050506104c5565b6040518082815260200191505060405180910390f35b61023a61071a565b6040518082815260200191505060405180910390f35b61027c6004803603602081101561026657600080fd5b8101908080359060200190929190505050610726565b60405180806020018060200180602001806020018060200186810386528b818151815260200191508051906020019080838360005b838110156102cc5780820151818401526020810190506102b1565b50505050905090810190601f1680156102f95780820380516001836020036101000a031916815260200191505b5086810385528a818151815260200191508051906020019080838360005b83811015610332578082015181840152602081019050610317565b50505050905090810190601f16801561035f5780820380516001836020036101000a031916815260200191505b50868103845289818151815260200191508051906020019080838360005b8381101561039857808201518184015260208101905061037d565b50505050905090810190601f1680156103c55780820380516001836020036101000a031916815260200191505b50868103835288818151815260200191508051906020019080838360005b838110156103fe5780820151818401526020810190506103e3565b50505050905090810190601f16801561042b5780820380516001836020036101000a031916815260200191505b50868103825287818151815260200191508051906020019080838360005b83811015610464578082015181840152602081019050610449565b50505050905090810190601f1680156104915780820380516001836020036101000a031916815260200191505b509a505050505050505050505060405180910390f35b6104af610a61565b6040518082815260200191505060405180910390f35b600080600160006040518060a001604052808f8f8080601f016020809104026020016040519081016040528093929190818152602001838380828437600081840152601f19601f8201169050808301925050505050505081526020018d8d8080601f016020809104026020016040519081016040528093929190818152602001838380828437600081840152601f19601f8201169050808301925050505050505081526020018b8b8080601f016020809104026020016040519081016040528093929190818152602001838380828437600081840152601f19601f82011690508083019250505050505050815260200189898080601f016020809104026020016040519081016040528093929190818152602001838380828437600081840152601f19601f82011690508083019250505050505050815260200187878080601f016020809104026020016040519081016040528093929190818152602001838380828437600081840152601f19601f8201169050808301925050505050505081525090806001815401808255809150509060018203906000526020600020906005020160009091929091909150600082015181600001908051906020019061068e929190610a6d565b5060208201518160010190805190602001906106ab929190610a6d565b5060408201518160020190805190602001906106c8929190610a6d565b5060608201518160030190805190602001906106e5929190610a6d565b506080820151816004019080519060200190610702929190610a6d565b505050039050809150509a9950505050505050505050565b60008080549050905090565b6000818154811061073357fe5b9060005260206000209060050201600091509050806000018054600181600116156101000203166002900480601f0160208091040260200160405190810160405280929190818152602001828054600181600116156101000203166002900480156107df5780601f106107b4576101008083540402835291602001916107df565b820191906000526020600020905b8154815290600101906020018083116107c257829003601f168201915b505050505090806001018054600181600116156101000203166002900480601f01602080910402602001604051908101604052809291908181526020018280546001816001161561010002031660029004801561087d5780601f106108525761010080835404028352916020019161087d565b820191906000526020600020905b81548152906001019060200180831161086057829003601f168201915b505050505090806002018054600181600116156101000203166002900480601f01602080910402602001604051908101604052809291908181526020018280546001816001161561010002031660029004801561091b5780601f106108f05761010080835404028352916020019161091b565b820191906000526020600020905b8154815290600101906020018083116108fe57829003601f168201915b505050505090806003018054600181600116156101000203166002900480601f0160208091040260200160405190810160405280929190818152602001828054600181600116156101000203166002900480156109b95780601f1061098e576101008083540402835291602001916109b9565b820191906000526020600020905b81548152906001019060200180831161099c57829003601f168201915b505050505090806004018054600181600116156101000203166002900480601f016020809104026020016040519081016040528092919081815260200182805460018160011615610100020316600290048015610a575780601f10610a2c57610100808354040283529160200191610a57565b820191906000526020600020905b815481529060010190602001808311610a3a57829003601f168201915b5050505050905085565b60008080549050905090565b828054600181600116156101000203166002900490600052602060002090601f016020900481019282601f10610aae57805160ff1916838001178555610adc565b82800160010185558215610adc579182015b82811115610adb578251825591602001919060010190610ac0565b5b509050610ae99190610aed565b5090565b610b0f91905b80821115610b0b576000816000905550600101610af3565b5090565b9056fea265627a7a72315820a78574960fa51e13473303f0f4b1be1d5a930da8253ba7af9a10bd87e042f79d64736f6c63430005100032",
  "source": "pragma solidity ^0.5.0;\r\n\r\ncontract covidVaccineRegister {\r\n\r\n  // define the struct Day1User\r\n  struct VaccinationRecord {\r\n    string Name;\r\n    string Surname;\r\n    string VaccinationDate;\r\n    string VaccinationName;\r\n    string VaccinationPlace;\r\n  }\r\n\r\n  // define the array of users\r\n  VaccinationRecord[] public vaccinationRecords;\r\n\r\n  function createVaccinationRecord(string calldata _Name, string calldata _Surname, string calldata _vaccineDate, string calldata _vaccineName, string calldata _vaccinePlace) external returns(uint){\r\n    // get an instance of a Day1User using the input variables and push into the array of day1_users, returns the id\r\n    uint id = vaccinationRecords.push(VaccinationRecord(_Name, _Surname, _vaccineDate, _vaccineName, _vaccinePlace )) - 1;\r\n    \r\n    // return the user id\r\n    return id;\r\n  }\r\n\r\n  function getNumberOfVaccinations() external view returns(uint) {\r\n    // return the length of the day1_users array\r\n    return vaccinationRecords.length;\r\n  }\r\n\r\n  function getNumberOfVaccinations2() external view returns(uint) {\r\n    // return the length of the day1_users array\r\n    return vaccinationRecords.length;\r\n  }\r\n\r\n  \r\n\r\n}",
  "sourcePath": "D:/OneDrive/Documents/UCT/Web Development/application/contracts/cvt.sol",
  "compiler": {
    "name": "solc",
    "version": "0.5.16+commit.9c3226ce.Emscripten.clang"
  },
  "schemaVersion": "3.3.4",
  "updatedAt": "2021-05-20T20:38:04.871Z",
  "networkType": "ethereum",
  "devdoc": {
    "methods": {}
  },
  "userdoc": {
    "methods": {}
  }
}